:03000000020300F8
:02000B000C32B5
:100300001203157C0012033775901F120357120356
:100310006980F080FEC0D075A000758000912C919E
:100320002C7194912C912C758A00758C00D2AFD2CF
:10033000A9758901D0D022120394912C912C74813B
:1003400071D1912C9011001203F174C171D1912CD3
:100350009011111203F122D2AFD2A9D28C75901F45
:100360003090FDC28C75900F22120394912C912C29
:10037000748171D1912C90111E1203F174C171D14D
:10038000912C90112C1203F1912C1203FB754F0A42
:100390001211362275A038C280C281D282912CC23D
:1003A00082912C75A00CC280C281D282912CC28213
:1003B000912C75A001C280C281D282912CC28291FF
:1003C0002C75A006C280C281D282912CC282912C4F
:1003D00022F5A0C280C281D282912CC282912C22AD
:1003E000F5A0D280C281D282912CC282912C912C14
:1003F00022E493600571E0A380F722C0D0EC1204E0
:100400003571E0912CE5F071E0912CE58C1204350A
:1004100071E0912CE5F071E0912CE58A12043571C0
:10042000E0912CE5F071E0912CD0D022780179FF99
:0B043000D9FED8FA22FA540FFB940901
:10043B005007EB2430F5F08005EB2437F5F0EA5448
:0F044B00F0C4FB94095004EB243022EB24372239
:101100005052455353205357495443482053573165
:10111000004153204C454420474C4F575300524503
:10112000414354494F4E2054494D4500434F554E7D
:10113000542049532000C0D0C001C002C003C0F0F9
:10114000E54F75F00AA4FB7AC879FFD9FEDAFADB1D
:0C115000F6D0F0D003D002D001D0D022A5
:00000001FF
