:03000000020D29C5
:0C0D2900787FE4F6D8FD758126020D707D
:070F4B005765696768740037
:100E5400C100C101C102021000000215000002120B
:100E64000000010A00011700041800000000020B32
:020E740000007C
:100DB500E4F5B0F5A05390EF5380F0120ED5120F65
:100DC5001F120F09E50960FCE4F509C29475C50118
:100DD5003000FDC20075C5803000FDE5085403F5FF
:100DE5000DC200E4F5C53000FD850814C200D2949B
:100DF500E50DFE7C00E42514F511EC3EF51080C4EC
:03004B00020EB9E9
:100EB900C0E0C0D075D000C007AFC4EF2480700572
:0C0EC90085C508D200D007D0D0D0E032A0
:03000B00020C0FD5
:100C0F00C0E0C0F0C083C082C0D075D000C000C0AB
:100C1F0001C002C003C004C005C006C007758C3CEC
:100C2F00758AB0750901AB1BAA1AA919A818C000BB
:100C3F00C001C002C003AC10AD11EC120AA3D00367
:100C4F00D002D001D0001208078F1B8E1A8D198C7D
:100C5F0018050AE50A64096003020D0EF50A7F669E
:100C6F007E667DD67C40AB1BAA1AA919A81812085C
:100C7F00F8E4FBFA79207841120A01E4FBFA799043
:100C8F0078C21208078F1B8E1A8D198C18120ADC66
:100C9F008E0B8F0C7F80120F357BFF7A0F794B7D78
:100CAF0006120E057FCB120F35AE0BAF0C7C037DFA
:100CBF00E8120E37AE0BAF0C7C037DE8120B768C6F
:100CCF000E8D0F7D64120E31AE0EAF0F7C007D6462
:100CDF00120B768C0E8D0F7D0A120E31AE0EAF0FEA
:100CEF007C007D0A120B768C0E8D0FE50F2430FFE2
:100CFF00120E3E751B00751A00751900751800D07D
:100D0F0007D006D005D004D003D002D001D000D038
:0A0D1F00D0D082D083D0F0D0E032B3
:100ED500D29443C32043C30143C31053C3F743C351
:0A0EE5000443B104D2AF43C340221E
:100F0900758C3C758AB0E58954F04401F589D2A9FC
:060F1900D28CE4F50A226F
:100F1F007F647E00120E7F7F38120F357F0E120F07
:060F2F00357F01020F35C1
:100F35008F22120EEF8522A0C280120E77C2827F09
:060F4500057E00020E7F94
:0D0E3100AE0EAF0F7C00120B76EF2430FFE9
:100E3E008F26120EEF8526A0D280120E77C2827FE9
:060E4E00057E00020E7F8C
:100E05008B228A2389248D25E525D39400401CABAC
:100E150022AA23A924120B5DFF120E3E740125247C
:0C0E2500F524E43523F523152580DD229B
:100EEF0075A0FFC280D281C282120E7BD28230A740
:0A0EFF0006C282D28280F7C282226E
:080E7700C281D2827F057E00DA
:100E7F00D3EF9400EE64809480400DE4FD0DBD052A
:080E8F00FCEF1F70EB1E80E870
:010E97002238
:100E9800D3EF9400EE648094804015E4FCFD0DBD12
:100EA80000010CBC01F8BD7EF5EF1F70E31E80E069
:010EB8002217
:10080000020B48E86480F8E933E83360110460F0D3
:10081000ED33EC337009E8FCE9FDEAFEEBFF22045E
:1008200060DED3EB9FEA9EE99DE8C2E78CF0C2F759
:1008300095F0400CE8CCF8E9CDF9EACEFAEBCFFB25
:10084000120B1385D0F05804700320D5B3E8047060
:10085000075002B2D5020B5292D5EC0460F7E4CCFB
:10086000C0E0C398F8603B94186008400DD0E0FBEE
:10087000020B2AE4FBFAC9FC8028E830E406E4C94C
:10088000FBE4CAFCE830E305E4C9CACBFCE8540742
:100890006010F8C3E913F9EA13FAEB13FBEC13FC4D
:1008A000D8F130F52FC3E49CFCEF9BFFEE9AFEEDF0
:1008B00099FDD0E0FBEF4E4D4C701222DB03020B92
:1008C0004FEC2CFCEF33FFEE33FEED33FDED30E764
:1008D000EB020B2AEF2BFFEE3AFEED39FDD0E0FBE9
:1008E00050130BBB0003020B52ED13FDEE13FEEF92
:0808F00013FFEC13FC020B2ABC
:1008F800EC4D6011E8497017ED33EC3304600DE4FA
:10090800FCFFFEFD22E933E8330470F8020B4812BD
:100918000B1358046009E4CC2481500628500902BE
:100928000B52284003020B4FC0E0EB4A7044B980D9
:1009380006D0E0FB020B3EEF4E701CBD8008EBFFBB
:10094800EAFEE9FD80EBE98DF0A4FEE5F00209E19D
:10095800E9CDF9EAFEEBFFEF89F0A4FCE5F0CE89DA
:10096800F0A42EFFE435F0CD89F0A42DFEE435F097
:100978008067EF4E7005BD80D780C3EF8BF0A4ACC5
:10098800F0EE8BF0A42CFCE435F0F8EF8AF0A42C00
:10099800E5F038FCE433CB8DF0A42CFCE5F03BF813
:1009A800EE8AF0A42CFCE5F038F8E433CF89F0A403
:1009B8002CFCE5F038CF3400CE89F0A42FFFE5F009
:1009C8003EFEE433C98DF0A42EFEE5F039CD8AF061
:1009D800A42FFFE5F03EFEE43DFD33D0E0FB5007D9
:1009E8000BBB000F020B52EC2CFCEF33FFEE33FE77
:0609F800ED33FD020B2AA5
:1009FE00020B52EC5D046005E859047003020B48CB
:100A0E00120B13580460F6EC4860F2EC7004FDFE15
:100A1E00FF22C860DB2481C85009C39860025006CB
:100A2E00020B4F9850CAF582E9294B4A7005AB82EA
:100A3E00020B3E75F0007C1A7880C3EF9BEE9AEDA8
:100A4E0099400DC3EF9BFFEE9AFEED99FDE842F043
:100A5E00DC23ACF0D0E0FFD0E0FED0E0FDAB822096
:100A6E00E7101BEB60BAEC2CFCEF33FFEE33FEED20
:100A7E0033FD020B2AE803F830E705C0F075F000ED
:100A8E00EF2FFFEE33FEED33FD40B830E7C280AA04
:100A9E0075F020800E75F010800575F0087D007ED3
:100AAE00007F003392D530D503120BACEC334010DF
:100ABE00EF33FFEE33FEED33FDEC33FCD5F0ED22DC
:0E0ACE00E5F0247EA2D513CC92E7CDCEFF2218
:100ADC00EDD2E7CD33EC3392D524814006E4FFFE12
:100AEC00FDFC22FCE4CFCECDCC24E0501174FF8071
:100AFC00EDC3CC13CCCD13CDCE13CECF13CF04700E
:070B0C00F030D5DE020BAC56
:100B1300E9D2E7C933E833F892D5EDD2E7CD33EC28
:070B230033FC5002B2D522A1
:100B2A00EC30E7100FBF000C0EBE00080DBD00042C
:100B3A000BEB6014A2D5EB13FCED92E7FD2274FFD8
:100B4A00FCFDFEFF22E480F8A2D574FF13FC7D8031
:030B5A00E480EF45
:100D3500020DB5E493A3F8E493A34003F68001F212
:100D450008DFF48029E493A3F85407240CC8C333BF
:100D5500C4540F4420C8834004F456800146F6DF8E
:100D6500E4800B0102040810204080900E54E47EBC
:100D7500019360BCA3FF543F30E509541FFEE49383
:100D8500A360010ECF54C025E060A840B8E493A34A
:100D9500FAE493A3F8E493A3C8C582C8CAC583CA75
:100DA500F0A3C8C582C8CAC583CADFE9DEE780BE2D
:010E7600007B
:100B5D00BB010689828A83E0225002E722BBFE0296
:090B6D00E32289828A83E49322C9
:100B7600C2D5EC30E709B2D5E4C39DFDE49CFCEE9A
:100B860030E715B2D5E4C39FFFE49EFE120BBAC34D
:100B9600E49DFDE49CFC8003120BBA30D507C3E448
:060BA6009FFFE49EFE2209
:0E0BAC00C3E49FFFE49EFEE49DFDE49CFC225A
:100BBA00BC000BBE0029EF8DF084FFADF022E4CC1F
:100BCA00F875F008EF2FFFEE33FEEC33FCEE9DECE8
:100BDA00984005FCEE9DFE0FD5F0E9E4CEFD22ED2E
:100BEA00F8F5F0EE8420D21CFEADF075F008EF2F78
:100BFA00FFED33FD4007985006D5F0F222C398FD69
:050C0A000FD5F0EA2205
:00000001FF
