:0300000002097E74
:0C097E00787FE4F6D8FD7581200209C5E1
:020B2A002E009B
:100AFD00C100C101C102020A0000020F0000021173
:060B0D00000002130000CD
:10080000E4F5B0F5A05390EF5380F0120AAF120A4E
:1008100094C29475C5013000FDC20075C5803000DA
:10082000FDE5085403F509C200E4F5C53000FD8577
:10083000080EC200D294E509FE7C00E4250EF50BFB
:10084000EC3EF50A7F80120B14850A0C850B0DAE69
:100850000CAF0D7C007D641208E18E0C8F0D7D1FA6
:100860001208F38E0C8F0D7C007D641208F38E0F3E
:100870008F10120AC9AE0CAF0D7C007D641208F314
:100880008C0C8D0DAE0CAF0D7C007D0A1208F38E22
:10089000118F12120AC9AE0CAF0D7C007D0A12082E
:1008A000F38C0C8D0D850C13850D147BFF7A0B7961
:1008B0002A7D01120A0AE5142430FF120ACD7F882E
:0808C0007E13120A5702081111
:03004B00020A782E
:100A7800C0E0C0D075D000C007AFC4EF24807005B7
:0C0A880085C508D200D007D0D0D0E032E5
:100AAF00D29443C32043C30143C31053C3F743C37B
:0A0ABF000443B104D2AF43C3402248
:100A94007F647E00120A3E7F38120B147F0E120B05
:0B0AA400147F01120B147F80020B1462
:100B14008F15120AE38515A0C280120A36C2827F9D
:060B2400057E00020A3EFE
:040AC900EF2430FFE7
:100ACD008F19120AE38519A0D280120A36C2827FCD
:060ADD00057E00020A3E46
:100A0A008B158A1689178D18E518D39400401CABEC
:100A1A0015AA16A9171208C8FF120ACD74012517BC
:0C0A2A00F517E43516F516151880DD22CE
:100AE30075A0FFC280D281C282120A3AD28230A795
:0A0AF30006C282D28280F7C282227E
:080A3600C281D2827F057E001F
:100A3E00D3EF9400EE64809480400DE4FD0DBD056F
:080A4E00FCEF1F70EB1E80E8B5
:010A5600227D
:100A5700D3EF9400EE648094804015E4FCFD0DBD57
:100A670000010CBC01F8BD7EF5EF1F70E31E80E0AE
:010A7700225C
:10098A00020800E493A3F8E493A34003F68001F27B
:10099A0008DFF48029E493A3F85407240CC8C3336E
:1009AA00C4540F4420C8834004F456800146F6DF3D
:1009BA00E4800B0102040810204080900AFDE47EC6
:1009CA00019360BCA3FF543F30E509541FFEE49332
:1009DA00A360010ECF54C025E060A840B8E493A3F9
:1009EA00FAE493A3F8E493A3C8C582C8CAC583CA24
:1009FA00F0A3C8C582C8CAC583CADFE9DEE780BEDC
:010B130000E1
:1008C800BB010689828A83E0225002E722BBFE022E
:0908D800E32289828A83E4932261
:1008E100EF8DF0A4A8F0CF8CF0A428CE8DF0A42E2B
:0208F100FE22E5
:1008F300C2D5EC30E709B2D5E4C39DFDE49CFCEE20
:1009030030E715B2D5E4C39FFFE49EFE120929C365
:10091300E49DFDE49CFC800312092930D507C3E460
:060923009FFFE49EFE228E
:10092900BC000BBE0029EF8DF084FFADF022E4CCB2
:10093900F875F008EF2FFFEE33FEEC33FCEE9DEC7B
:10094900984005FCEE9DFE0FD5F0E9E4CEFD22EDC1
:10095900F8F5F0EE8420D21CFEADF075F008EF2F0B
:10096900FFED33FD4007985006D5F0F222C398FDFC
:050979000FD5F0EA2299
:00000001FF
