:03000000020100FA
:1001000075A00075900051D751D7318E51D751D776
:1001100051D7748131CB51D790110031EB51D712A7
:10012000026074C131CB51D790110D31EB51D71210
:1001300001F551D7754F0A120168318E51D751D749
:1001400051D7748131CB51D790110731EB51D71270
:1001500002A174C131CB51D790111331EB51D7515A
:10016000D751D712022B80FEC0D0C001C002C003FD
:10017000C0F0E54F75F00AA4FB7AC879FFD9FEDA22
:10018000FADBF6D0F0D003D002D001D0D02275A097
:1001900038C280C281D28251D7C28251D775A00C99
:1001A000C280C281D28251D7C28251D775A001C20A
:1001B00080C281D28251D7C28251D775A006C28037
:1001C000C281D28251D7C28251D722F5A0C280C249
:1001D00081D28251D7C28251D722F5A0D280C2816A
:1001E000D28251D7C28251D751D722E493600531D0
:1001F000DAA380F722C0D0C005E478A4E81202E0B8
:1002000031DAE5F031DA742031DA7946E91202E0C8
:1002100031DAE5F031DA742031DA7A54EA1202E0A8
:0F02200031DAE5F031DAD005D0D022C0D0C005F8
:10022F00E47EB4EE1202E031DAE5F031DA74203117
:10023F00DA7F86E91202E031DAE5F031DA74203143
:10024F00DAE5811202E031DAE5F031DAD005D0D00B
:10025F0022C0D0C003C004C005FBACF0ADD07410F9
:10026F001202E031DAE5F031DA742031DA75F03468
:10027F00E5F01202E031DAE5F031DA742031DAED2F
:10028F001202E031DAE5F031DAD005D004D003D034
:10029F00D022C0D0C005E47B54EB1202E031DAE586
:1002AF00F031DA742031DA7C65EC1202E031DAE5F4
:1002BF00F031DA742031DA7D44ED1202E031DAE503
:1002CF00F031DAD005D0D022780179FFD9FED8FAF3
:1002DF0022FA540FFB94095007EB2430F5F08005F8
:1002EF00EB2437F5F0EA54F0C4FB94095004EB24E7
:0602FF003022EB2437223F
:1011000041425053573D00523334353D0052303147
:0A111000323D0052363753503D00C7
:00000001FF
