:10000000020200C0D0C001C002C003C0F0E54F75BD
:10001000F00AA4FB7AC879FFD9FEDAFADBF6D0F051
:10002000D003D002D001D0D022C0D0C0017590FF43
:10003000754F0A12000375900FE590540FF9894E21
:10004000754F02120003759000E9C4F590754F0AD0
:1000500012000375900FE590540F70D1D001D0D0ED
:1000600022C0D0C000C001754E00120029A84E1257
:100070000029E54EC448F54FD001D000D0D022C0B1
:10008000D0C000C001A850A951120061A74F09D8E3
:10009000F8D001D000D0D022C0D0C000C001A850FC
:1000A00075900F75900F754F04120003A951E590DC
:1000B000FCC3985025EC29F9E775900F54F0F590A2
:1000C000754F04120003E7540FC4F590754F0412E6
:1000D000000380CFD001D000D0D075900F80FBC03E
:1000E000D0C000C001C002A851A952AA501AE60807
:1000F00066F709DAF9E6A85166F7D002D001D00018
:03010000D0D0223A
:100200007581CF755003755160754F0012007F7571
:1002100050037551607552701200DF7550037551AF
:060220007012009880FE40
:00000001FF
