:03000000020050AB
:02000B000C32B5
:100050001200EA7C0012011E754F0A12113E7590C3
:100060001F12013E1201501200E2DDE77D05120071
:100070007612017B80FE896088618D62C0D0C0F0FD
:10008000C002C003C006C0077400B56205D2D20228
:1000900000D5F97A08AB60AE61FFEE8DF084F8AE62
:1000A000F0EB33FBEE33FEEF33FFB40007EEB56247
:1000B00003BB0000B3E933F930E007EE9DFEEF9497
:1000C00000FFDADDED89F0A4F5F0E56095F0F56369
:1000D000C2D20200D5D007D006D003D003D0F0D0D2
:1000E000D022C3EF29F9EE38F822C0D075A00075F0
:1000F00080007590005151515131C151515151758C
:100100008A00758C00D2AFD2A975890112011E75C3
:100110004F0A12113E780079007D05D0D0221201DD
:10012000C151515151748131FE515190110012024F
:100130001E74C131FE515190111112021E22D2AF14
:10014000D2A9D28C75901F3090FDC28C75900F2271
:100150001201C151515151748131FE515190111E02
:1001600012021E74C131FE515190112C12021E5107
:0E01700051120228754F0A12113E221201C1CF
:10017E0051515151748131FE515190111E12021E76
:10018E0074C131FE515190113512021E515112019E
:10019E00A022C0D0E8120262510D5151E5F0510D6E
:1001AE005151E9120262510D5151E5F0510D51516B
:1001BE00D0D02275A038C280C281D2825151C28263
:1001CE00515175A00CC280C281D2825151C282514E
:1001DE005175A001C280C281D2825151C282515149
:1001EE0075A006C280C281D2825151C28251512263
:1001FE00F5A0C280C281D2825151C282515122F5E4
:10020E00A0D280C281D2825151C28251515151220B
:10021E00E4936005510DA380F722C0D0EC75F02158
:10022E00A4AEF0FFEE120262510D5151E5F0510DE8
:10023E005151EF120262510D5151E5F0510D5151D4
:10024E00D0D022C000C001780179FFD9FED8FAD0F3
:10025E0001D00022C0D0C002C003FA540FFB940993
:10026E005007EB2430F5F08005EB2437F5F0EA5417
:10027E00F0C4FB94095006EB243002028EEB2437B7
:07028E00D003D002D0D02202
:101100005052455353205357495443482053573165
:10111000004153204C454420474C4F575300524503
:10112000414354494F4E2054494D450054494D4583
:101130002049532000415652472049532000C0D037
:10114000C001C002C003C0F0E54F75F00AA4FB7AED
:10115000C879FFD9FEDAFADBF6D0F0D003D002D09E
:0411600001D0D022C8
:00000001FF
